:0400000007EF00F016
:0A000800018221ED06F04EEF06F034
:10060000003C2D2D3E00494E4400535044005250B2
:100610004D00313030004752003C2D0020005F007B
:0106200000D9
:10062200066E2450D8B418EF03F01AEF03F064EF0B
:1006320003F00604D8A420EF03F022EF03F02CEF1E
:1006420003F0190E046ECC0E056E8AEC06F0010E54
:10065200816E7EEF03F0020E0618D8A433EF03F08A
:1006620035EF03F03FEF03F0010E046ECC0E056E82
:100672008AEC06F0810E816E7EEF03F0030E0618FF
:10068200D8A446EF03F048EF03F052EF03F0030E55
:10069200046ECE0E056E8AEC06F0800E816E7EEF41
:1006A20003F0040E0618D8A459EF03F05BEF03F031
:1006B2007EEF03F01E0E046ECC0E056E8AEC06F081
:1006C200816A7EEF03F01C0E046ECC0E056E8AEC7E
:1006D20006F01C0E046ECD0E056E8AEC06F01C0EA2
:1006E200046ECE0E056E8AEC06F01C0E046ECF0E62
:1006F200056E8AEC06F061EF03F01200126E1250E2
:100702003C0DF3CF20F0F4CF21F0710E205C170ED8
:100712002158D8B08FEF03F091EF03F0E9EF03F027
:10072200C70E106E030E056EE80E046E20C002F0B6
:1007320021C003F084EC05F002C009F003C00AF006
:100742000C6A0A0E0B6EBDEC05F00950300F04EC7A
:1007520007F0C80E106E056A640E046E20C002F027
:1007620021C003F084EC05F002C009F003C00AF0D6
:100772000C6A0A0E0B6EBDEC05F00950300F04EC4A
:1007820007F0C90E106E056A0A0E046E20C002F050
:1007920021C003F084EC05F002C009F003C00AF0A6
:1007A2000C6A0A0E0B6EBDEC05F00950300F04EC1A
:1007B20007F0CA0E106E20C009F021C00AF00C6AC0
:1007C2000A0E0B6EBDEC05F00950300F04EC07F079
:1007D2001200076A05BEF2EF03F0F0EF03F0F8EF44
:1007E20003F0046C051ED8B0052A010E076E03BE85
:1007F200FFEF03F0FDEF03F005EF04F0026C031EC0
:10080200D8B0032A010E071A096A000E086E0450B6
:100812000510D8B40FEF04F011EF04F039EF04F033
:10082200010E066E19EF04F0D89004360536062A3A
:1008320005AE1EEF04F020EF04F015EF04F0D8909F
:10084200083609360450025C05500358D8A02CEF34
:1008520004F02EEF04F033EF04F00450025E055072
:10086200035A0880D89005320432062E20EF04F095
:100872000750D8B43FEF04F041EF04F045EF04F025
:10088200086C091ED8B0092A08C002F009C003F09A
:1008920012000A0E046E800E056E8AEC06F0160E29
:1008A200046E840E056E8AEC06F00E0E046E880E3F
:1008B200056E8AEC06F0060E046E8C0E056E8AEC4E
:1008C20006F0150E086E170E096E140E0A6EFCEC79
:1008D20004F0100E15181610D8A472EF04F074EF7D
:1008E20004F079EF04F0175046EC05F0A4EF04F0A1
:1008F200200E15181610D8A481EF04F083EF04F02F
:1009020088EF04F01750EFEC05F0A4EF04F0300E7E
:1009120015181610D8A490EF04F092EF04F097EF98
:1009220004F017507FEC03F0A4EF04F0400E15180A
:100932001610D8A49FEF04F0A1EF04F0A4EF04F086
:10094200175011EC03F012000F6A0BBEADEF04F06A
:10095200ABEF04F0B3EF04F00A6C0B1ED8B00B2A15
:10096200010E0F6E0DBEBAEF04F0B8EF04F0BEEF49
:1009720004F00C6C0D1ED8B00D2A0C500D10D8B41A
:10098200C5EF04F0C7EF04F0EBEF04F0010E0E6EBA
:10099200CFEF04F0D8900C360D360E2A0DAED4EF00
:1009A20004F0D6EF04F0CBEF04F00C500A5C0D50CB
:1009B2000B58D8A0DFEF04F0E1EF04F0E5EF04F00C
:1009C2000C500A5E0D500B5AD8900D320C320E2E7E
:1009D200D6EF04F00F50D8B4F1EF04F0F3EF04F0C7
:1009E200F7EF04F00A6C0B1ED8B00B2A0AC00AF00B
:1009F2000BC00BF0120060AE01EF05F003EF05F043
:100A020041EF05F0DEEC06F00850D96EDA6A02C05A
:100A1200DEFF03C0DDFF0A50D96EDA6A65CFDFFF61
:100A2200660E0E6E0F0E0F6E116A000E106E28EF1C
:100A320005F010500E24D96E11500F20DA6E0950B5
:100A42001024E16EE26ADFCFE7FF104A112A0A5052
:100A5200D96EDA6ADF500B6E0C6A0B50105C1150C3
:100A6200800A0D6E0C50800A0D58D8A03BEF05F09D
:100A72003DEF05F01AEF05F0609EA49045EF05F0FA
:100A82000A50D96EDA6ADF6A1200126E12C013F0CF
:100A9200630E13644FEF05F051EF05F059EF05F0C7
:100AA200120E046EC00E056E8AEC06F083EF05F09E
:100AB200C00E106E056A0A0E046E13C002F0036ABD
:100AC200EAEC03F002C00AF003C00BF00D6A0A0E52
:100AD2000C6EA5EC04F00A50300F04EC07F0C10EC6
:100AE200106E13C00AF00B6A0D6A0A0E0C6EA5ECAA
:100AF20004F00A50300F04EC07F0C20E106E200E04
:100B020004EC07F01200076A000E066E045005108E
:100B1200D8B48EEF05F090EF05F0B8EF05F0010EB6
:100B2200086E98EF05F0D89004360536082A05AE0F
:100B32009DEF05F09FEF05F094EF05F0D890063693
:100B420007360450025C05500358D8A0ABEF05F0FD
:100B5200ADEF05F0B2EF05F00450025E0550035A06
:100B62000680D89005320432082E9FEF05F006C0A9
:100B720002F007C003F012000B500C10D8B4C4EFFF
:100B820005F0C6EF05F0EAEF05F0010E0D6ECEEFAF
:100B920005F0D8900B360C360D2A0CAED3EF05F0CB
:100BA200D5EF05F0CAEF05F00B50095C0C500A585E
:100BB200D8A0DEEF05F0E0EF05F0E4EF05F00B5012
:100BC200095E0C500A5AD8900C320B320D2ED5EF1A
:100BD20005F009C009F00AC00AF01200126E070EF1
:100BE2001264F6EF05F0F8EF05F0F9EF05F0126A7E
:100BF200070E1218D8A400EF06F002EF06F012EF6B
:100C020006F0C40E106E5F0E04EC07F0C50E106EF7
:100C12001250180FD96EDA6ADF5004EC07F020EF99
:100C220006F0C40E106E1250180FD96EDA6ADF5039
:100C320004EC07F0C50E106E200E04EC07F0120053
:100C42000600F2A427EF06F029EF06F04CEF06F0BB
:100C5200F294224A232A880E221807E1130E23183F
:100C6200D8A436EF06F038EF06F046EF06F0236A16
:100C7200000E226E2450D8B441EF06F044EF06F085
:100C8200010E45EF06F0000E246E080ED624D66E35
:100C9200000ED720D76E01921100440EF66E0E0E92
:100CA200F76E000EF86E00EE18F010EE08F0090074
:100CB200F5CFEEFFE550E150FAE1246A236A226A99
:100CC200216A206A01900192000EF86E060EF76EFC
:100CD20000011AEF07F0939493861F0E6F166F8E22
:100CE200800E6E18D8A478EF06F07AEF06F071EF56
:100CF20006F0776AE10E706E1B0E716E030E726E55
:100D02000D01D46B1F0E6F166F50606A608A608C83
:100D12001200000E026E0550A7EC06F09AEF06F0E4
:100D2200010E026E04C0F6FF0800F550A7EC06F0B3
:100D3200042A04C0F6FF0800F5500009D8A4A4EF65
:100D420006F0A6EF06F091EF06F01200036E02B075
:100D5200ADEF06F0B0EF06F08282B1EF06F08292BC
:100D620003C083FF82848294958E828082928284E1
:100D7200829483BEBFEF06F0C1EF06F0B8EF06F033
:100D82008290959E1200956A9450F80B946E829010
:100D9200000E026E020EA7EC06F0000E026E380E76
:100DA200A7EC06F0000E026E0C0EA7EC06F0000E89
:100DB200026E010EA7EC06F012006150046E056A85
:100DC200D89004360536D89004360536D8900436C5
:100DD20005366238E842070B070B066E076A0450B5
:100DE2000610026E05500710036E1200C4EC06F0E6
:100DF2006CEC06F010EC07F0F28EF28C9390939E5E
:100E02008190819E1200116E000E026E1050A7ECAE
:100E120006F0010E026E1150A7EC06F01200D76A1E
:100E2200060ED66ED58CD59AD586F294F28AD58ED8
:100E32001200F7EC06F04AEC04F01CEF07F007EFA3
:0A0E420000F04E31323334355243D4
:00000001FF
