:04000000FEEF17F008
:1006000000001250800B1F6E12501224266E11AE85
:100610000CEF03F00EEF03F00FEF03F026802650EF
:10062000D8B415EF03F017EF03F02BEF03F02628F3
:10063000D8A41DEF03F01FEF03F027EF03F0000E27
:100640000F6E000E106E000E116E000E126E118EE7
:10065000126A33EF03F0000E0F6E000E106E000EE4
:10066000116E000E126E1650800B1F1A16501624B3
:10067000276E15AE3EEF03F040EF03F041EF03F0BD
:1006800027802750D8B447EF03F049EF03F05DEF20
:1006900003F02728D8A44FEF03F051EF03F059EFF0
:1006A00003F0000E136E000E146E000E156E000E99
:1006B000166E158E166A65EF03F0000E136E000EAF
:1006C000146E000E156E000E166E135014101510D9
:1006D0001610D8A46EEF03F070EF03F088EF03F06C
:1006E000000E0F6E000E106E000E116E000E126ED8
:1006F000800E11127F0E12121F5012120FC00FF037
:1007000010C010F011C011F012C012F0C7EF04F0C9
:100710002650D8A48EEF03F090EF03F09AEF03F089
:10072000000E0F6E000E106E000E116E000E126E97
:10073000C7EF04F0275026C017F0186A175E000EA6
:10074000185A7F0E1724206E000E1820216E0FC03D
:100750001BF010C01CF011C01DF012C01EF0000EE6
:100760000F6E000E106E000E116E000E126E000E57
:10077000226E000E236E000E246E000E256E276A78
:10078000FAEF03F02750D8B4C8EF03F0CAEF03F034
:10079000E1EF03F0D8901B361C361D361E36D8907C
:1007A0000F3610361136123625AED9EF03F0DBEFD7
:1007B00003F0DCEF03F00F80D89022362336243686
:1007C000253613501B5C14501C5815501D581650DC
:1007D0001E58D8A0EEEF03F0F0EF03F0F9EF03F0AE
:1007E000258C13501B5E14501C5A15501D5A165060
:1007F0001E5A272A190E276400EF04F002EF04F0B6
:10080000C2EF03F01B501C101D101E10D8B40BEFCC
:1008100004F00DEF04F025EF04F0228025EF04F042
:10082000D8900F3610361136123625AE1AEF04F076
:100830001CEF04F01DEF04F00F80D8902236233611
:10084000243625362006D8A0210611AE2AEF04F062
:100850002CEF04F010EF04F0276A25AE32EF04F01D
:1008600034EF04F058EF04F0FF0E2214176EFF0E61
:100870002314186EFF0E2414196E7F0E25141A6EA1
:100880001750181019101A10D8B449EF04F04BEF94
:1008900004F04FEF04F0010E276E58EF04F00FA0A4
:1008A00054EF04F056EF04F058EF04F04BEF04F06F
:1008B0002750D8B45EEF04F060EF04F084EF04F04A
:1008C000010E0F26000E10221122122212A06BEF31
:1008D00004F06DEF04F084EF04F00FC017F010C0C7
:1008E00018F011C019F012C01AF01A341A32193265
:1008F0001832173217C00FF018C010F019C011F0DD
:100900001AC012F0204A212A21BE8FEF04F0215094
:1009100008E12028D8A08FEF04F091EF04F09CEFBD
:1009200004F0000E216E2068000E0F6E000E106E97
:10093000000E116E000E126E21BEA9EF04F02150C0
:1009400006E12004D8B0A7EF04F0A9EF04F0B5EF5A
:1009500004F0216A000E206E000E0F6E000E106E65
:10096000000E116E000E126E1F6A20C026F026A027
:10097000BCEF04F0BEEF04F0C1EF04F0118EC2EF43
:1009800004F0119ED8902630126E7CEF03F0120016
:10099000096E0950D8B4CFEF04F0D1EF04F0F3EFB3
:1009A00004F004BED8EF04F0D6EF04F0F3EF04F047
:1009B00001C005F002C006F003C007F004C008F053
:1009C000051E061E071E081E052A000E0622072207
:1009D000082205C00BF006C00CF007C00DF008C0DF
:1009E0000EF0FBEF04F001C00BF002C00CF003C0EE
:1009F0000DF004C00EF00150021003100410D8A432
:100A000004EF05F006EF05F010EF05F0000E016EA3
:100A1000000E026E000E036E000E046EA1EF05F0D4
:100A2000960E0A6E1AEF05F00A2AD8900E320D3291
:100A30000C320B32000E0B14056E000E0C14066EF9
:100A4000000E0D14076EFE0E0E14086E05500610F3
:100A500007100810D8A42FEF05F031EF05F014EFC0
:100A600005F03FEF05F00A2A010E0B26000E0C22BE
:100A70000D220E22D8900E320D320C320B32000EA7
:100A80000B14056E000E0C14066E000E0D14076E8E
:100A9000FF0E0E14086E0550061007100810D8A49B
:100AA00054EF05F056EF05F033EF05F05EEF05F07B
:100AB0000A06D8900B360C360D360E360DBE63EF97
:100AC00005F065EF05F06DEF05F0020E0A606BEFC3
:100AD00005F06DEF05F058EF05F00AB072EF05F084
:100AE00074EF05F075EF05F00D9ED8900A320AC03C
:100AF00005F0066A076A086A05C008F0076A066A10
:100B0000056A05500B1206500C1207500D120850C2
:100B10000E120950D8B48FEF05F091EF05F099EF60
:100B200005F004BE98EF05F096EF05F099EF05F09B
:100B30000E8E0BC001F00CC002F00DC003F00EC011
:100B400004F01200BFEC07F0386A376A000EE3ECDD
:100B500006F0396E0F0E3918D8B4B1EF05F0B3EFC7
:100B600005F004EF06F00E0E3918D8A4BAEF05F020
:100B7000BCEF05F0C7EF05F0060E3860C2EF05F0D8
:100B8000C4EF05F0E8EF05F0382AE8EF05F00D0EA8
:100B90003918D8A4CEEF05F0D0EF05F0DBEF05F063
:100BA0003850D8B4D6EF05F0D8EF05F0E8EF05F0EF
:100BB0003806E8EF05F00B0E3918D8A4E2EF05F07F
:100BC000E4EF05F0E8EF05F0010E376E070E386E22
:100BD0003750D8B4EEEF05F0F0EF05F004EF06F073
:100BE0000E0E3918D8B4F7EF05F0F9EF05F002EF63
:100BF00006F00D0E3918D8A400EF06F002EF06F04B
:100C000004EF06F0386A376A040E52EC07F001C0B0
:100C100034F002C035F0140E136EAE0E146E230EB7
:100C2000156E410E166E34C001F035C002F0036A35
:100C3000046A000EC8EC04F001C00FF002C010F00E
:100C400003C011F004C012F001EC03F00FC028F053
:100C500010C029F011C02AF012C02BF060EC06F091
:100C60002850366E066A100E056E360E076E010E9F
:100C7000086E1BEC07F0030E336E080E326E770E13
:100C8000E82EFED7322EFCD7332EFAD70000066AA4
:100C9000200E056E380E076E010E086E1BEC07F075
:100CA000030E336E080E326E770EE82EFED7322E0C
:100CB000FCD7332EFAD70000A6EF05F0FEEF17F0B1
:100CC0002A342B34316E3150D8A469EF06F06BEF23
:100CD00006F075EF06F0000E286E000E296E000E6D
:100CE0002A6E000E2B6EE2EF06F028C02CF029C011
:100CF0002DF02AC02EF02BC02FF0200E85EF06F02D
:100D0000D8902F322E322D322C32E82E80EF06F082
:100D10002C50306E2A8EFF0E2816FF0E2916FF0E5D
:100D20002A16000E2B16960E315E31BE9CEF06F091
:100D30009AEF06F0B2EF06F03150800A970FD8B064
:100D4000A4EF06F0A6EF06F0A8EF06F06BEF06F0B2
:100D5000D8902B322A3229322832313EA8EF06F0C1
:100D6000CAEF06F01F0E3164B8EF06F0BAEF06F0D6
:100D7000C2EF06F06BEF06F0D890283629362A36F7
:100D80002B3631063150D8A4C8EF06F0CAEF06F072
:100D9000BCEF06F03050D8B4D0EF06F0D2EF06F03A
:100DA000DAEF06F02B1E2A1E291E286C000E2922BF
:100DB0002A222B2228C028F029C029F02AC02AF094
:100DC0002BC02BF01200016E0104D8A4EAEF06F04C
:100DD000ECEF06F0F0EF06F082500F0B1AEF07F081
:100DE0000150D8A4F6EF06F0F8EF06F019EF07F07F
:100DF00082500F0B0F0AD8B400EF07F002EF07F094
:100E00000DEF07F03A50D8B408EF07F00AEF07F0FB
:100E10000DEF07F03A6AECEF06F082500F0B0F0A65
:100E2000D8A415EF07F017EF07F019EF07F0010E40
:100E30003A6E0F0E12000F01436B446B05C001F0B8
:100E400006C002F093EC07F008C045FF460E0C6E9A
:100E50000F0E0D6E0F6A000E0E6E3DEF07F007507D
:100E60000E24D96EDA6A0E500C24E16E0F500D205C
:100E7000E26EDFCFE7FF0E4A0F2A0850096E0A6ABA
:100E800009500E5C0F50800A0B6E0A50800A0B58F6
:100E9000D8A04DEF07F04FEF07F02FEF07F00F014D
:100EA00040871200076E07C003F0D8900336D89031
:100EB0000336C250C30B0310C26EC282C2B263EFCC
:100EC00007F065EF07F05EEF07F0C350C4CF03F003
:100ED000046A03C004F0036A0310056E0450066E32
:100EE00005C001F006C002F01200939493861F0E15
:100EF0006F166F8E800E6E18D8A481EF07F083EF07
:100F000007F07AEF07F0776AE10E706E1B0E716ED4
:100F1000030E726E0D01D46B1F0E6F166F50606A58
:100F2000608A608C120001C003F0070E0316050EE4
:100F3000046ED8900336042E99EF07F003500F018A
:100F4000426F01C003F002C004F0D89004320332B3
:100F5000D89004320332D890043203320350416FE8
:100F60001200C08EC09AC088C096C090C082C09443
:100F7000C292C19AC198C46AC36AC2801200CAEC04
:100F800007F0B1EC07F075EC07F012003A6A0001C7
:0C0F9000A2EF05F094500F09946E1200BF
:042FFC00C6EF07F025
:00000001FF
